{
  "address": "0xf93793d7E771E09FEFD33738E2bF20a9b21741fC",
  "abi": [
    {
      "inputs": [
        {
          "internalType": "address",
          "name": "_usdtAddress",
          "type": "address"
        },
        {
          "internalType": "address",
          "name": "_safeAddress",
          "type": "address"
        }
      ],
      "stateMutability": "nonpayable",
      "type": "constructor"
    },
    {
      "inputs": [
        {
          "internalType": "address",
          "name": "owner",
          "type": "address"
        }
      ],
      "name": "OwnableInvalidOwner",
      "type": "error"
    },
    {
      "inputs": [
        {
          "internalType": "address",
          "name": "account",
          "type": "address"
        }
      ],
      "name": "OwnableUnauthorizedAccount",
      "type": "error"
    },
    {
      "anonymous": false,
      "inputs": [
        {
          "indexed": true,
          "internalType": "address",
          "name": "previousOwner",
          "type": "address"
        },
        {
          "indexed": true,
          "internalType": "address",
          "name": "newOwner",
          "type": "address"
        }
      ],
      "name": "OwnershipTransferred",
      "type": "event"
    },
    {
      "inputs": [
        {
          "internalType": "uint256",
          "name": "amount",
          "type": "uint256"
        }
      ],
      "name": "approveUSD",
      "outputs": [],
      "stateMutability": "nonpayable",
      "type": "function"
    },
    {
      "inputs": [],
      "name": "balanceOfUSD",
      "outputs": [
        {
          "internalType": "uint256",
          "name": "",
          "type": "uint256"
        }
      ],
      "stateMutability": "view",
      "type": "function"
    },
    {
      "inputs": [],
      "name": "owner",
      "outputs": [
        {
          "internalType": "address",
          "name": "",
          "type": "address"
        }
      ],
      "stateMutability": "view",
      "type": "function"
    },
    {
      "inputs": [],
      "name": "renounceOwnership",
      "outputs": [],
      "stateMutability": "nonpayable",
      "type": "function"
    },
    {
      "inputs": [],
      "name": "safeAddress",
      "outputs": [
        {
          "internalType": "address",
          "name": "",
          "type": "address"
        }
      ],
      "stateMutability": "view",
      "type": "function"
    },
    {
      "inputs": [
        {
          "internalType": "address",
          "name": "newOwner",
          "type": "address"
        }
      ],
      "name": "setOwner",
      "outputs": [],
      "stateMutability": "nonpayable",
      "type": "function"
    },
    {
      "inputs": [
        {
          "internalType": "address",
          "name": "newSafeAddress",
          "type": "address"
        }
      ],
      "name": "setSafeAddress",
      "outputs": [],
      "stateMutability": "nonpayable",
      "type": "function"
    },
    {
      "inputs": [
        {
          "internalType": "address",
          "name": "usdAddress",
          "type": "address"
        }
      ],
      "name": "setUSD",
      "outputs": [],
      "stateMutability": "nonpayable",
      "type": "function"
    },
    {
      "inputs": [
        {
          "internalType": "address",
          "name": "newOwner",
          "type": "address"
        }
      ],
      "name": "transferOwnership",
      "outputs": [],
      "stateMutability": "nonpayable",
      "type": "function"
    },
    {
      "inputs": [
        {
          "internalType": "uint256",
          "name": "amount",
          "type": "uint256"
        }
      ],
      "name": "transferUSD",
      "outputs": [],
      "stateMutability": "nonpayable",
      "type": "function"
    },
    {
      "inputs": [],
      "name": "usd",
      "outputs": [
        {
          "internalType": "contract IERC20",
          "name": "",
          "type": "address"
        }
      ],
      "stateMutability": "view",
      "type": "function"
    }
  ],
  "transactionHash": "0x1e9d740d34dfc50b58f309607a3d64572eda11537af16cc4bc46bef5edb0c606",
  "args": [
    "0x9baA3B7C42cC09DABae8a29D10cb222166b11e0d",
    "0xCbEE4A03BAFF04d99F98dDa0B5Aa26d4e6061EED"
  ],
  "numDeployments": 4,
  "solcInputHash": "dd701fd8a9b57852e5497efeb4a92c22",
  "bytecode": "0x608060405234801561001057600080fd5b50604051610ffd380380610ffd83398181016040528101906100329190610343565b33600073ffffffffffffffffffffffffffffffffffffffff168173ffffffffffffffffffffffffffffffffffffffff16036100a55760006040517f1e4fbdf700000000000000000000000000000000000000000000000000000000815260040161009c9190610392565b60405180910390fd5b6100b48161021c60201b60201c565b50600073ffffffffffffffffffffffffffffffffffffffff168273ffffffffffffffffffffffffffffffffffffffff1603610124576040517f08c379a000000000000000000000000000000000000000000000000000000000815260040161011b9061040a565b60405180910390fd5b600073ffffffffffffffffffffffffffffffffffffffff168173ffffffffffffffffffffffffffffffffffffffff1603610193576040517f08c379a000000000000000000000000000000000000000000000000000000000815260040161018a90610476565b60405180910390fd5b81600160006101000a81548173ffffffffffffffffffffffffffffffffffffffff021916908373ffffffffffffffffffffffffffffffffffffffff16021790555080600260006101000a81548173ffffffffffffffffffffffffffffffffffffffff021916908373ffffffffffffffffffffffffffffffffffffffff1602179055505050610496565b60008060009054906101000a900473ffffffffffffffffffffffffffffffffffffffff169050816000806101000a81548173ffffffffffffffffffffffffffffffffffffffff021916908373ffffffffffffffffffffffffffffffffffffffff1602179055508173ffffffffffffffffffffffffffffffffffffffff168173ffffffffffffffffffffffffffffffffffffffff167f8be0079c531659141344cd1fd0a4f28419497f9722a3daafe3b4186f6b6457e060405160405180910390a35050565b600080fd5b600073ffffffffffffffffffffffffffffffffffffffff82169050919050565b6000610310826102e5565b9050919050565b61032081610305565b811461032b57600080fd5b50565b60008151905061033d81610317565b92915050565b6000806040838503121561035a576103596102e0565b5b60006103688582860161032e565b92505060206103798582860161032e565b9150509250929050565b61038c81610305565b82525050565b60006020820190506103a76000830184610383565b92915050565b600082825260208201905092915050565b7f496e76616c696420555344542061646472657373000000000000000000000000600082015250565b60006103f46014836103ad565b91506103ff826103be565b602082019050919050565b60006020820190508181036000830152610423816103e7565b9050919050565b7f496e76616c696420736166652061646472657373000000000000000000000000600082015250565b60006104606014836103ad565b915061046b8261042a565b602082019050919050565b6000602082019050818103600083015261048f81610453565b9050919050565b610b58806104a56000396000f3fe608060405234801561001057600080fd5b50600436106100a95760003560e01c80638da5cb5b116100715780638da5cb5b1461012c578063c74e7a091461014a578063d63a6ccd14610166578063dbc4d32d14610184578063f2fde38b146101a0578063ffb4dda5146101bc576100a9565b806313af4035146100ae5780631ec49909146100ca5780635578110c146100e65780636f7ac4e114610104578063715018a614610122575b600080fd5b6100c860048036038101906100c391906107d4565b6101d8565b005b6100e460048036038101906100df91906107d4565b6101ec565b005b6100ee610238565b6040516100fb9190610810565b60405180910390f35b61010c61025e565b6040516101199190610844565b60405180910390f35b61012a610301565b005b610134610315565b6040516101419190610810565b60405180910390f35b610164600480360381019061015f919061088b565b61033e565b005b61016e610444565b60405161017b9190610917565b60405180910390f35b61019e600480360381019061019991906107d4565b61046a565b005b6101ba60048036038101906101b591906107d4565b6104b6565b005b6101d660048036038101906101d1919061088b565b61053c565b005b6101e061061e565b6101e9816104b6565b50565b6101f461061e565b80600260006101000a81548173ffffffffffffffffffffffffffffffffffffffff021916908373ffffffffffffffffffffffffffffffffffffffff16021790555050565b600260009054906101000a900473ffffffffffffffffffffffffffffffffffffffff1681565b6000600160009054906101000a900473ffffffffffffffffffffffffffffffffffffffff1673ffffffffffffffffffffffffffffffffffffffff166370a08231306040518263ffffffff1660e01b81526004016102bb9190610810565b602060405180830381865afa1580156102d8573d6000803e3d6000fd5b505050506040513d601f19601f820116820180604052508101906102fc9190610947565b905090565b61030961061e565b61031360006106a5565b565b60008060009054906101000a900473ffffffffffffffffffffffffffffffffffffffff16905090565b600160009054906101000a900473ffffffffffffffffffffffffffffffffffffffff1673ffffffffffffffffffffffffffffffffffffffff166323b872dd33600260009054906101000a900473ffffffffffffffffffffffffffffffffffffffff16846040518463ffffffff1660e01b81526004016103bf93929190610974565b6020604051808303816000875af11580156103de573d6000803e3d6000fd5b505050506040513d601f19601f8201168201806040525081019061040291906109e3565b610441576040517f08c379a000000000000000000000000000000000000000000000000000000000815260040161043890610a6d565b60405180910390fd5b50565b600160009054906101000a900473ffffffffffffffffffffffffffffffffffffffff1681565b61047261061e565b80600160006101000a81548173ffffffffffffffffffffffffffffffffffffffff021916908373ffffffffffffffffffffffffffffffffffffffff16021790555050565b6104be61061e565b600073ffffffffffffffffffffffffffffffffffffffff168173ffffffffffffffffffffffffffffffffffffffff16036105305760006040517f1e4fbdf70000000000000000000000000000000000000000000000000000000081526004016105279190610810565b60405180910390fd5b610539816106a5565b50565b600160009054906101000a900473ffffffffffffffffffffffffffffffffffffffff1673ffffffffffffffffffffffffffffffffffffffff1663095ea7b330836040518363ffffffff1660e01b8152600401610599929190610a8d565b6020604051808303816000875af11580156105b8573d6000803e3d6000fd5b505050506040513d601f19601f820116820180604052508101906105dc91906109e3565b61061b576040517f08c379a000000000000000000000000000000000000000000000000000000000815260040161061290610b02565b60405180910390fd5b50565b610626610769565b73ffffffffffffffffffffffffffffffffffffffff16610644610315565b73ffffffffffffffffffffffffffffffffffffffff16146106a357610667610769565b6040517f118cdaa700000000000000000000000000000000000000000000000000000000815260040161069a9190610810565b60405180910390fd5b565b60008060009054906101000a900473ffffffffffffffffffffffffffffffffffffffff169050816000806101000a81548173ffffffffffffffffffffffffffffffffffffffff021916908373ffffffffffffffffffffffffffffffffffffffff1602179055508173ffffffffffffffffffffffffffffffffffffffff168173ffffffffffffffffffffffffffffffffffffffff167f8be0079c531659141344cd1fd0a4f28419497f9722a3daafe3b4186f6b6457e060405160405180910390a35050565b600033905090565b600080fd5b600073ffffffffffffffffffffffffffffffffffffffff82169050919050565b60006107a182610776565b9050919050565b6107b181610796565b81146107bc57600080fd5b50565b6000813590506107ce816107a8565b92915050565b6000602082840312156107ea576107e9610771565b5b60006107f8848285016107bf565b91505092915050565b61080a81610796565b82525050565b60006020820190506108256000830184610801565b92915050565b6000819050919050565b61083e8161082b565b82525050565b60006020820190506108596000830184610835565b92915050565b6108688161082b565b811461087357600080fd5b50565b6000813590506108858161085f565b92915050565b6000602082840312156108a1576108a0610771565b5b60006108af84828501610876565b91505092915050565b6000819050919050565b60006108dd6108d86108d384610776565b6108b8565b610776565b9050919050565b60006108ef826108c2565b9050919050565b6000610901826108e4565b9050919050565b610911816108f6565b82525050565b600060208201905061092c6000830184610908565b92915050565b6000815190506109418161085f565b92915050565b60006020828403121561095d5761095c610771565b5b600061096b84828501610932565b91505092915050565b60006060820190506109896000830186610801565b6109966020830185610801565b6109a36040830184610835565b949350505050565b60008115159050919050565b6109c0816109ab565b81146109cb57600080fd5b50565b6000815190506109dd816109b7565b92915050565b6000602082840312156109f9576109f8610771565b5b6000610a07848285016109ce565b91505092915050565b600082825260208201905092915050565b7f555344207472616e73666572206661696c656400000000000000000000000000600082015250565b6000610a57601383610a10565b9150610a6282610a21565b602082019050919050565b60006020820190508181036000830152610a8681610a4a565b9050919050565b6000604082019050610aa26000830185610801565b610aaf6020830184610835565b9392505050565b7f55534420617070726f76616c206661696c656400000000000000000000000000600082015250565b6000610aec601383610a10565b9150610af782610ab6565b602082019050919050565b60006020820190508181036000830152610b1b81610adf565b905091905056fea26469706673582212203fe64a940ccb0db56aa136cf9887ace5c0c93c54e7093f884cf4f841f9736ade64736f6c634300081c0033",
  "devdoc": {
    "errors": {
      "OwnableInvalidOwner(address)": [
        {
          "details": "The owner is not a valid owner account. (eg. `address(0)`)"
        }
      ],
      "OwnableUnauthorizedAccount(address)": [
        {
          "details": "The caller account is not authorized to perform an operation."
        }
      ]
    },
    "kind": "dev",
    "methods": {
      "owner()": {
        "details": "Returns the address of the current owner."
      },
      "renounceOwnership()": {
        "details": "Leaves the contract without owner. It will not be possible to call `onlyOwner` functions. Can only be called by the current owner. NOTE: Renouncing ownership will leave the contract without an owner, thereby disabling any functionality that is only available to the owner."
      },
      "transferOwnership(address)": {
        "details": "Transfers ownership of the contract to a new account (`newOwner`). Can only be called by the current owner."
      }
    },
    "version": 1
  },
  "userdoc": {
    "kind": "user",
    "methods": {},
    "version": 1
  },
  "storageLayout": {
    "storage": [
      {
        "astId": 8,
        "contract": "contracts/Transfer.sol:Transfer",
        "label": "_owner",
        "offset": 0,
        "slot": "0",
        "type": "t_address"
      },
      {
        "astId": 264,
        "contract": "contracts/Transfer.sol:Transfer",
        "label": "usd",
        "offset": 0,
        "slot": "1",
        "type": "t_contract(IERC20)225"
      },
      {
        "astId": 266,
        "contract": "contracts/Transfer.sol:Transfer",
        "label": "safeAddress",
        "offset": 0,
        "slot": "2",
        "type": "t_address"
      }
    ],
    "types": {
      "t_address": {
        "encoding": "inplace",
        "label": "address",
        "numberOfBytes": "20"
      },
      "t_contract(IERC20)225": {
        "encoding": "inplace",
        "label": "contract IERC20",
        "numberOfBytes": "20"
      }
    }
  }
}